{
  "_format": "hh-sol-artifact-1",
  "contractName": "SwapV2",
  "sourceName": "contracts/SwapV2.sol",
  "abi": [
    {
      "inputs": [
        {
          "internalType": "string",
          "name": "_protocol",
          "type": "string"
        }
      ],
      "name": "decideProtocol",
      "outputs": [],
      "stateMutability": "nonpayable",
      "type": "function"
    },
    {
      "inputs": [
        {
          "internalType": "address",
          "name": "_owner",
          "type": "address"
        }
      ],
      "name": "initialize",
      "outputs": [],
      "stateMutability": "nonpayable",
      "type": "function"
    },
    {
      "inputs": [
        {
          "internalType": "uint256[3]",
          "name": "_amountOfTokens",
          "type": "uint256[3]"
        }
      ],
      "name": "swapTokens",
      "outputs": [
        {
          "internalType": "bool",
          "name": "",
          "type": "bool"
        }
      ],
      "stateMutability": "payable",
      "type": "function"
    }
  ],
  "bytecode": "0x608060405234801561001057600080fd5b50610e22806100206000396000f3fe6080604052600436106100345760003560e01c806369fde4df14610039578063c4d66de814610062578063e500dc2714610084575b600080fd5b61004c6100473660046109c1565b6100a4565b6040516100599190610c1d565b60405180910390f35b34801561006e57600080fd5b5061008261007d366004610982565b6107b0565b005b34801561009057600080fd5b5061008261009f366004610aea565b61088f565b604081015160208201518251600092839290916100c19190610d3d565b6100cb9190610d3d565b9050806064146100f65760405162461bcd60e51b81526004016100ed90610c76565b60405180910390fd5b60006101046103e834610d55565b61010e9034610d94565b84519091506000906064906101239084610d75565b61012d9190610d55565b90506000606486600160200201516101459085610d75565b61014f9190610d55565b90506000606487600260200201516101679086610d75565b6101719190610d55565b60408051600280825260608201835292935060009290916020830190803683375050604080516002808252606082018352939450600093909250906020830190803683375050603654604080516315ab88c960e31b815290519394506001600160a01b039091169263ad5c464892506004808301926020929190829003018186803b1580156101ff57600080fd5b505afa158015610213573d6000803e3d6000fd5b505050506040513d601f19601f8201168201806040525081019061023791906109a5565b8160008151811061025857634e487b7160e01b600052603260045260246000fd5b6001600160a01b0392831660209182029290920101526033541661027e6103e834610d55565b60405161028a90610c1a565b60006040518083038185875af1925050503d80600081146102c7576040519150601f19603f3d011682016040523d82523d6000602084013e6102cc565b606091505b5050895115905061046957736b175474e89094c44da98b954eedeac495271d0f8160018151811061030d57634e487b7160e01b600052603260045260246000fd5b6001600160a01b03928316602091820292909201015260365460405163d06ca61f60e01b815291169063d06ca61f9061034c9088908590600401610cbd565b60006040518083038186803b15801561036457600080fd5b505afa158015610378573d6000803e3d6000fd5b505050506040513d6000823e601f3d908101601f191682016040526103a09190810190610a43565b60365481519193506001600160a01b031690637ff36ab5908790859060019081106103db57634e487b7160e01b600052603260045260246000fd5b6020026020010151843342603c6103f29190610d3d565b6040518663ffffffff1660e01b81526004016104119493929190610cde565b6000604051808303818588803b15801561042a57600080fd5b505af115801561043e573d6000803e3d6000fd5b50505050506040513d6000823e601f3d908101601f191682016040526104679190810190610a43565b505b6020890151156106055773514910771af9ca656af840dff83e8264ecf986ca816001815181106104a957634e487b7160e01b600052603260045260246000fd5b6001600160a01b03928316602091820292909201015260365460405163d06ca61f60e01b815291169063d06ca61f906104e89087908590600401610cbd565b60006040518083038186803b15801561050057600080fd5b505afa158015610514573d6000803e3d6000fd5b505050506040513d6000823e601f3d908101601f1916820160405261053c9190810190610a43565b60365481519193506001600160a01b031690637ff36ab59086908590600190811061057757634e487b7160e01b600052603260045260246000fd5b6020026020010151843342603c61058e9190610d3d565b6040518663ffffffff1660e01b81526004016105ad9493929190610cde565b6000604051808303818588803b1580156105c657600080fd5b505af11580156105da573d6000803e3d6000fd5b50505050506040513d6000823e601f3d908101601f191682016040526106039190810190610a43565b505b6040890151156107a157731f9840a85d5af5bf1d1762f925bdaddc4201f9848160018151811061064557634e487b7160e01b600052603260045260246000fd5b6001600160a01b03928316602091820292909201015260365460405163d06ca61f60e01b815291169063d06ca61f906106849086908590600401610cbd565b60006040518083038186803b15801561069c57600080fd5b505afa1580156106b0573d6000803e3d6000fd5b505050506040513d6000823e601f3d908101601f191682016040526106d89190810190610a43565b60365481519193506001600160a01b031690637ff36ab59085908590600190811061071357634e487b7160e01b600052603260045260246000fd5b6020026020010151843342603c61072a9190610d3d565b6040518663ffffffff1660e01b81526004016107499493929190610cde565b6000604051808303818588803b15801561076257600080fd5b505af1158015610776573d6000803e3d6000fd5b50505050506040513d6000823e601f3d908101601f1916820160405261079f9190810190610a43565b505b50600198975050505050505050565b600054610100900460ff16806107c957506107c961097c565b806107d7575060005460ff16155b6107f35760405162461bcd60e51b81526004016100ed90610c28565b600054610100900460ff1615801561081e576000805460ff1961ff0019909116610100171660011790555b603380546001600160a01b0384166001600160a01b031991821617909155603480548216737a250d5630b4cf539739df2c5dacb4c659f2488d1790556035805490911673d9e1ce17f2641f24ae83637ab66a2cca9c378b9f179055801561088b576000805461ff00191690555b5050565b60405160200161089e90610bf3565b60405160208183030381529060405280519060200120816040516020016108c59190610bba565b60405160208183030381529060405280519060200120141561090457603454603680546001600160a01b0319166001600160a01b039092169190911790555b60405160200161091390610c09565b604051602081830303815290604052805190602001208160405160200161093a9190610bba565b60405160208183030381529060405280519060200120141561097957603554603680546001600160a01b0319166001600160a01b039092169190911790555b50565b303b1590565b600060208284031215610993578081fd5b813561099e81610dd7565b9392505050565b6000602082840312156109b6578081fd5b815161099e81610dd7565b6000606082840312156109d2578081fd5b82601f8301126109e0578081fd5b6040516060810181811067ffffffffffffffff82111715610a0357610a03610dc1565b604052808360608101861015610a17578384fd5b835b6003811015610a38578135835260209283019290910190600101610a19565b509195945050505050565b60006020808385031215610a55578182fd5b825167ffffffffffffffff80821115610a6c578384fd5b818501915085601f830112610a7f578384fd5b815181811115610a9157610a91610dc1565b8381029150610aa1848301610d13565b8181528481019084860184860187018a1015610abb578788fd5b8795505b83861015610add578051835260019590950194918601918601610abf565b5098975050505050505050565b60006020808385031215610afc578182fd5b823567ffffffffffffffff80821115610b13578384fd5b818501915085601f830112610b26578384fd5b813581811115610b3857610b38610dc1565b610b4a601f8201601f19168501610d13565b91508082528684828501011115610b5f578485fd5b80848401858401378101909201929092529392505050565b6000815180845260208085019450808401835b83811015610baf5781516001600160a01b031687529582019590820190600101610b8a565b509495945050505050565b60008251815b81811015610bda5760208186018101518583015201610bc0565b81811115610be85782828501525b509190910192915050565b692aa724a9aba0a82fab1960b11b8152600a0190565b64535553484960d81b815260050190565b90565b901515815260200190565b6020808252602e908201527f436f6e747261637420696e7374616e63652068617320616c726561647920626560408201526d195b881a5b9a5d1a585b1a5e995960921b606082015260800190565b60208082526027908201527f4572726f7220696e20706f7263656e7461676573206f6620726571756972656460408201526620746f6b656e7360c81b606082015260800190565b600083825260406020830152610cd66040830184610b77565b949350505050565b600085825260806020830152610cf76080830186610b77565b6001600160a01b03949094166040830152506060015292915050565b60405181810167ffffffffffffffff81118282101715610d3557610d35610dc1565b604052919050565b60008219821115610d5057610d50610dab565b500190565b600082610d7057634e487b7160e01b81526012600452602481fd5b500490565b6000816000190483118215151615610d8f57610d8f610dab565b500290565b600082821015610da657610da6610dab565b500390565b634e487b7160e01b600052601160045260246000fd5b634e487b7160e01b600052604160045260246000fd5b6001600160a01b038116811461097957600080fdfea2646970667358221220d52ffc51f2e74c1d69d9614cfa80129d90fe37805a30c12d5d470393a56c300764736f6c63430008000033",
  "linkReferences": {},
  "deployedLinkReferences": {}
}