{
  "_format": "hh-sol-artifact-1",
  "contractName": "SwapV2",
  "sourceName": "contracts/SwapV2.sol",
  "abi": [
    {
      "inputs": [
        {
          "internalType": "string",
          "name": "_protocol",
          "type": "string"
        }
      ],
      "name": "decideProtocol",
      "outputs": [],
      "stateMutability": "nonpayable",
      "type": "function"
    },
    {
      "inputs": [
        {
          "internalType": "address",
          "name": "_owner",
          "type": "address"
        }
      ],
      "name": "initialize",
      "outputs": [],
      "stateMutability": "nonpayable",
      "type": "function"
    },
    {
      "inputs": [
        {
          "internalType": "uint256[3]",
          "name": "_amountOfTokens",
          "type": "uint256[3]"
        }
      ],
      "name": "swapTokens",
      "outputs": [
        {
          "internalType": "bool",
          "name": "",
          "type": "bool"
        }
      ],
      "stateMutability": "payable",
      "type": "function"
    }
  ],
  "bytecode": "0x608060405234801561001057600080fd5b50611569806100206000396000f3fe6080604052600436106100345760003560e01c806369fde4df14610039578063c4d66de8146100b4578063e500dc2714610105575b600080fd5b61009c6004803603606081101561004f57600080fd5b8101908080606001906003806020026040519081016040528092919082600360200280828437600081840152601f19601f82011690508083019250505050505091929192905050506101cd565b60405180821515815260200191505060405180910390f35b3480156100c057600080fd5b50610103600480360360208110156100d757600080fd5b81019080803573ffffffffffffffffffffffffffffffffffffffff169060200190929190505050611094565b005b34801561011157600080fd5b506101cb6004803603602081101561012857600080fd5b810190808035906020019064010000000081111561014557600080fd5b82018360208201111561015757600080fd5b8035906020019184600183028401116401000000008311171561017957600080fd5b91908080601f016020809104026020016040519081016040528093929190818152602001838380828437600081840152601f19601f82011690508083019250505050505050919291929050505061127e565b005b600080826002600381106101dd57fe5b6020020151836001600381106101ef57fe5b60200201518460006003811061020157fe5b60200201510101905060648114610263576040517f08c379a000000000000000000000000000000000000000000000000000000000815260040180806020018281038252602781526020018061150d6027913960400191505060405180910390fd5b60006103e8348161027057fe5b0434039050600060648560006003811061028657fe5b602002015183028161029457fe5b04905060006064866001600381106102a857fe5b60200201518402816102b657fe5b04905060006064876002600381106102ca57fe5b60200201518502816102d857fe5b0490506060600267ffffffffffffffff811180156102f557600080fd5b506040519080825280602002602001820160405280156103245781602001602082028036833780820191505090505b5090506060600267ffffffffffffffff8111801561034157600080fd5b506040519080825280602002602001820160405280156103705781602001602082028036833780820191505090505b509050603660009054906101000a900473ffffffffffffffffffffffffffffffffffffffff1673ffffffffffffffffffffffffffffffffffffffff1663ad5c46486040518163ffffffff1660e01b815260040160206040518083038186803b1580156103db57600080fd5b505afa1580156103ef573d6000803e3d6000fd5b505050506040513d602081101561040557600080fd5b81019080805190602001909291905050508160008151811061042357fe5b602002602001019073ffffffffffffffffffffffffffffffffffffffff16908173ffffffffffffffffffffffffffffffffffffffff1681525050603360009054906101000a900473ffffffffffffffffffffffffffffffffffffffff1673ffffffffffffffffffffffffffffffffffffffff166103e834816104a157fe5b0460405180600001905060006040518083038185875af1925050503d80600081146104e8576040519150601f19603f3d011682016040523d82523d6000602084013e6104ed565b606091505b5050506000896000600381106104ff57fe5b602002015111156108cc57736b175474e89094c44da98b954eedeac495271d0f8160018151811061052c57fe5b602002602001019073ffffffffffffffffffffffffffffffffffffffff16908173ffffffffffffffffffffffffffffffffffffffff1681525050603660009054906101000a900473ffffffffffffffffffffffffffffffffffffffff1673ffffffffffffffffffffffffffffffffffffffff1663d06ca61f86836040518363ffffffff1660e01b81526004018083815260200180602001828103825283818151815260200191508051906020019060200280838360005b838110156105fe5780820151818401526020810190506105e3565b50505050905001935050505060006040518083038186803b15801561062257600080fd5b505afa158015610636573d6000803e3d6000fd5b505050506040513d6000823e3d601f19601f82011682018060405250602081101561066057600080fd5b810190808051604051939291908464010000000082111561068057600080fd5b8382019150602082018581111561069657600080fd5b82518660208202830111640100000000821117156106b357600080fd5b8083526020830192505050908051906020019060200280838360005b838110156106ea5780820151818401526020810190506106cf565b505050509050016040525050509150603660009054906101000a900473ffffffffffffffffffffffffffffffffffffffff1673ffffffffffffffffffffffffffffffffffffffff16637ff36ab5868460018151811061074557fe5b60200260200101518433603c42016040518663ffffffff1660e01b815260040180858152602001806020018473ffffffffffffffffffffffffffffffffffffffff168152602001838152602001828103825285818151815260200191508051906020019060200280838360005b838110156107cd5780820151818401526020810190506107b2565b50505050905001955050505050506000604051808303818588803b1580156107f457600080fd5b505af1158015610808573d6000803e3d6000fd5b50505050506040513d6000823e3d601f19601f82011682018060405250602081101561083357600080fd5b810190808051604051939291908464010000000082111561085357600080fd5b8382019150602082018581111561086957600080fd5b825186602082028301116401000000008211171561088657600080fd5b8083526020830192505050908051906020019060200280838360005b838110156108bd5780820151818401526020810190506108a2565b50505050905001604052505050505b6000896001600381106108db57fe5b60200201511115610ca85773514910771af9ca656af840dff83e8264ecf986ca8160018151811061090857fe5b602002602001019073ffffffffffffffffffffffffffffffffffffffff16908173ffffffffffffffffffffffffffffffffffffffff1681525050603660009054906101000a900473ffffffffffffffffffffffffffffffffffffffff1673ffffffffffffffffffffffffffffffffffffffff1663d06ca61f85836040518363ffffffff1660e01b81526004018083815260200180602001828103825283818151815260200191508051906020019060200280838360005b838110156109da5780820151818401526020810190506109bf565b50505050905001935050505060006040518083038186803b1580156109fe57600080fd5b505afa158015610a12573d6000803e3d6000fd5b505050506040513d6000823e3d601f19601f820116820180604052506020811015610a3c57600080fd5b8101908080516040519392919084640100000000821115610a5c57600080fd5b83820191506020820185811115610a7257600080fd5b8251866020820283011164010000000082111715610a8f57600080fd5b8083526020830192505050908051906020019060200280838360005b83811015610ac6578082015181840152602081019050610aab565b505050509050016040525050509150603660009054906101000a900473ffffffffffffffffffffffffffffffffffffffff1673ffffffffffffffffffffffffffffffffffffffff16637ff36ab58584600181518110610b2157fe5b60200260200101518433603c42016040518663ffffffff1660e01b815260040180858152602001806020018473ffffffffffffffffffffffffffffffffffffffff168152602001838152602001828103825285818151815260200191508051906020019060200280838360005b83811015610ba9578082015181840152602081019050610b8e565b50505050905001955050505050506000604051808303818588803b158015610bd057600080fd5b505af1158015610be4573d6000803e3d6000fd5b50505050506040513d6000823e3d601f19601f820116820180604052506020811015610c0f57600080fd5b8101908080516040519392919084640100000000821115610c2f57600080fd5b83820191506020820185811115610c4557600080fd5b8251866020820283011164010000000082111715610c6257600080fd5b8083526020830192505050908051906020019060200280838360005b83811015610c99578082015181840152602081019050610c7e565b50505050905001604052505050505b600089600260038110610cb757fe5b6020020151111561108457731f9840a85d5af5bf1d1762f925bdaddc4201f98481600181518110610ce457fe5b602002602001019073ffffffffffffffffffffffffffffffffffffffff16908173ffffffffffffffffffffffffffffffffffffffff1681525050603660009054906101000a900473ffffffffffffffffffffffffffffffffffffffff1673ffffffffffffffffffffffffffffffffffffffff1663d06ca61f84836040518363ffffffff1660e01b81526004018083815260200180602001828103825283818151815260200191508051906020019060200280838360005b83811015610db6578082015181840152602081019050610d9b565b50505050905001935050505060006040518083038186803b158015610dda57600080fd5b505afa158015610dee573d6000803e3d6000fd5b505050506040513d6000823e3d601f19601f820116820180604052506020811015610e1857600080fd5b8101908080516040519392919084640100000000821115610e3857600080fd5b83820191506020820185811115610e4e57600080fd5b8251866020820283011164010000000082111715610e6b57600080fd5b8083526020830192505050908051906020019060200280838360005b83811015610ea2578082015181840152602081019050610e87565b505050509050016040525050509150603660009054906101000a900473ffffffffffffffffffffffffffffffffffffffff1673ffffffffffffffffffffffffffffffffffffffff16637ff36ab58484600181518110610efd57fe5b60200260200101518433603c42016040518663ffffffff1660e01b815260040180858152602001806020018473ffffffffffffffffffffffffffffffffffffffff168152602001838152602001828103825285818151815260200191508051906020019060200280838360005b83811015610f85578082015181840152602081019050610f6a565b50505050905001955050505050506000604051808303818588803b158015610fac57600080fd5b505af1158015610fc0573d6000803e3d6000fd5b50505050506040513d6000823e3d601f19601f820116820180604052506020811015610feb57600080fd5b810190808051604051939291908464010000000082111561100b57600080fd5b8382019150602082018581111561102157600080fd5b825186602082028301116401000000008211171561103e57600080fd5b8083526020830192505050908051906020019060200280838360005b8381101561107557808201518184015260208101905061105a565b50505050905001604052505050505b6001975050505050505050919050565b600060019054906101000a900460ff16806110b357506110b26114c7565b5b806110c9575060008054906101000a900460ff16155b61111e576040517f08c379a000000000000000000000000000000000000000000000000000000000815260040180806020018281038252602e8152602001806114df602e913960400191505060405180910390fd5b60008060019054906101000a900460ff16159050801561116e576001600060016101000a81548160ff02191690831515021790555060016000806101000a81548160ff0219169083151502179055505b81603360006101000a81548173ffffffffffffffffffffffffffffffffffffffff021916908373ffffffffffffffffffffffffffffffffffffffff160217905550737a250d5630b4cf539739df2c5dacb4c659f2488d603460006101000a81548173ffffffffffffffffffffffffffffffffffffffff021916908373ffffffffffffffffffffffffffffffffffffffff16021790555073d9e1ce17f2641f24ae83637ab66a2cca9c378b9f603560006101000a81548173ffffffffffffffffffffffffffffffffffffffff021916908373ffffffffffffffffffffffffffffffffffffffff160217905550801561127a5760008060016101000a81548160ff0219169083151502179055505b5050565b60405160200180807f554e49535741505f563200000000000000000000000000000000000000000000815250600a01905060405160208183030381529060405280519060200120816040516020018082805190602001908083835b602083106112fc57805182526020820191506020810190506020830392506112d9565b6001836020036101000a0380198251168184511680821785525050505050509050019150506040516020818303038152906040528051906020012014156113a157603460009054906101000a900473ffffffffffffffffffffffffffffffffffffffff16603660006101000a81548173ffffffffffffffffffffffffffffffffffffffff021916908373ffffffffffffffffffffffffffffffffffffffff1602179055505b60405160200180807f5355534849000000000000000000000000000000000000000000000000000000815250600501905060405160208183030381529060405280519060200120816040516020018082805190602001908083835b6020831061141f57805182526020820191506020810190506020830392506113fc565b6001836020036101000a0380198251168184511680821785525050505050509050019150506040516020818303038152906040528051906020012014156114c457603560009054906101000a900473ffffffffffffffffffffffffffffffffffffffff16603660006101000a81548173ffffffffffffffffffffffffffffffffffffffff021916908373ffffffffffffffffffffffffffffffffffffffff1602179055505b50565b6000803090506000813b905060008114925050509056fe436f6e747261637420696e7374616e63652068617320616c7265616479206265656e20696e697469616c697a65644572726f7220696e20706f7263656e7461676573206f6620726571756972656420746f6b656e73a2646970667358221220bca9559ad55fd458a7bfdd052520f3ddba2ad0f0605928a082741a5f0f9dc8c064736f6c63430007030033",
  "linkReferences": {},
  "deployedLinkReferences": {}
}