{
  "_format": "hh-sol-artifact-1",
  "contractName": "SwapV1",
  "sourceName": "contracts/SwapV1.sol",
  "abi": [
    {
      "inputs": [
        {
          "internalType": "address",
          "name": "_owner",
          "type": "address"
        }
      ],
      "stateMutability": "nonpayable",
      "type": "constructor"
    },
    {
      "inputs": [],
      "name": "owner",
      "outputs": [
        {
          "internalType": "address",
          "name": "",
          "type": "address"
        }
      ],
      "stateMutability": "view",
      "type": "function"
    },
    {
      "inputs": [
        {
          "internalType": "uint256[3]",
          "name": "_amountOfTokens",
          "type": "uint256[3]"
        }
      ],
      "name": "swapTokens",
      "outputs": [
        {
          "internalType": "bool",
          "name": "",
          "type": "bool"
        }
      ],
      "stateMutability": "payable",
      "type": "function"
    }
  ],
  "bytecode": "0x608060405234801561001057600080fd5b5060405161111e38038061111e8339818101604052602081101561003357600080fd5b810190808051906020019092919050505080603360006101000a81548173ffffffffffffffffffffffffffffffffffffffff021916908373ffffffffffffffffffffffffffffffffffffffff160217905550737a250d5630b4cf539739df2c5dacb4c659f2488d603460006101000a81548173ffffffffffffffffffffffffffffffffffffffff021916908373ffffffffffffffffffffffffffffffffffffffff16021790555050611034806100ea6000396000f3fe6080604052600436106100295760003560e01c806369fde4df1461002e5780638da5cb5b146100a9575b600080fd5b6100916004803603606081101561004457600080fd5b8101908080606001906003806020026040519081016040528092919082600360200280828437600081840152601f19601f82011690508083019250505050505091929192905050506100ea565b60405180821515815260200191505060405180910390f35b3480156100b557600080fd5b506100be610fb1565b604051808273ffffffffffffffffffffffffffffffffffffffff16815260200191505060405180910390f35b600080826002600381106100fa57fe5b60200201518360016003811061010c57fe5b60200201518460006003811061011e57fe5b60200201510101905060648114610180576040517f08c379a0000000000000000000000000000000000000000000000000000000008152600401808060200182810382526027815260200180610fd86027913960400191505060405180910390fd5b60006103e8348161018d57fe5b043403905060006064856000600381106101a357fe5b60200201518302816101b157fe5b04905060006064866001600381106101c557fe5b60200201518402816101d357fe5b04905060006064876002600381106101e757fe5b60200201518502816101f557fe5b0490506060600267ffffffffffffffff8111801561021257600080fd5b506040519080825280602002602001820160405280156102415781602001602082028036833780820191505090505b5090506060600267ffffffffffffffff8111801561025e57600080fd5b5060405190808252806020026020018201604052801561028d5781602001602082028036833780820191505090505b509050603460009054906101000a900473ffffffffffffffffffffffffffffffffffffffff1673ffffffffffffffffffffffffffffffffffffffff1663ad5c46486040518163ffffffff1660e01b815260040160206040518083038186803b1580156102f857600080fd5b505afa15801561030c573d6000803e3d6000fd5b505050506040513d602081101561032257600080fd5b81019080805190602001909291905050508160008151811061034057fe5b602002602001019073ffffffffffffffffffffffffffffffffffffffff16908173ffffffffffffffffffffffffffffffffffffffff1681525050603360009054906101000a900473ffffffffffffffffffffffffffffffffffffffff1673ffffffffffffffffffffffffffffffffffffffff166103e834816103be57fe5b0460405180600001905060006040518083038185875af1925050503d8060008114610405576040519150601f19603f3d011682016040523d82523d6000602084013e61040a565b606091505b50505060008960006003811061041c57fe5b602002015111156107e957736b175474e89094c44da98b954eedeac495271d0f8160018151811061044957fe5b602002602001019073ffffffffffffffffffffffffffffffffffffffff16908173ffffffffffffffffffffffffffffffffffffffff1681525050603460009054906101000a900473ffffffffffffffffffffffffffffffffffffffff1673ffffffffffffffffffffffffffffffffffffffff1663d06ca61f86836040518363ffffffff1660e01b81526004018083815260200180602001828103825283818151815260200191508051906020019060200280838360005b8381101561051b578082015181840152602081019050610500565b50505050905001935050505060006040518083038186803b15801561053f57600080fd5b505afa158015610553573d6000803e3d6000fd5b505050506040513d6000823e3d601f19601f82011682018060405250602081101561057d57600080fd5b810190808051604051939291908464010000000082111561059d57600080fd5b838201915060208201858111156105b357600080fd5b82518660208202830111640100000000821117156105d057600080fd5b8083526020830192505050908051906020019060200280838360005b838110156106075780820151818401526020810190506105ec565b505050509050016040525050509150603460009054906101000a900473ffffffffffffffffffffffffffffffffffffffff1673ffffffffffffffffffffffffffffffffffffffff16637ff36ab5868460018151811061066257fe5b60200260200101518433603c42016040518663ffffffff1660e01b815260040180858152602001806020018473ffffffffffffffffffffffffffffffffffffffff168152602001838152602001828103825285818151815260200191508051906020019060200280838360005b838110156106ea5780820151818401526020810190506106cf565b50505050905001955050505050506000604051808303818588803b15801561071157600080fd5b505af1158015610725573d6000803e3d6000fd5b50505050506040513d6000823e3d601f19601f82011682018060405250602081101561075057600080fd5b810190808051604051939291908464010000000082111561077057600080fd5b8382019150602082018581111561078657600080fd5b82518660208202830111640100000000821117156107a357600080fd5b8083526020830192505050908051906020019060200280838360005b838110156107da5780820151818401526020810190506107bf565b50505050905001604052505050505b6000896001600381106107f857fe5b60200201511115610bc55773514910771af9ca656af840dff83e8264ecf986ca8160018151811061082557fe5b602002602001019073ffffffffffffffffffffffffffffffffffffffff16908173ffffffffffffffffffffffffffffffffffffffff1681525050603460009054906101000a900473ffffffffffffffffffffffffffffffffffffffff1673ffffffffffffffffffffffffffffffffffffffff1663d06ca61f85836040518363ffffffff1660e01b81526004018083815260200180602001828103825283818151815260200191508051906020019060200280838360005b838110156108f75780820151818401526020810190506108dc565b50505050905001935050505060006040518083038186803b15801561091b57600080fd5b505afa15801561092f573d6000803e3d6000fd5b505050506040513d6000823e3d601f19601f82011682018060405250602081101561095957600080fd5b810190808051604051939291908464010000000082111561097957600080fd5b8382019150602082018581111561098f57600080fd5b82518660208202830111640100000000821117156109ac57600080fd5b8083526020830192505050908051906020019060200280838360005b838110156109e35780820151818401526020810190506109c8565b505050509050016040525050509150603460009054906101000a900473ffffffffffffffffffffffffffffffffffffffff1673ffffffffffffffffffffffffffffffffffffffff16637ff36ab58584600181518110610a3e57fe5b60200260200101518433603c42016040518663ffffffff1660e01b815260040180858152602001806020018473ffffffffffffffffffffffffffffffffffffffff168152602001838152602001828103825285818151815260200191508051906020019060200280838360005b83811015610ac6578082015181840152602081019050610aab565b50505050905001955050505050506000604051808303818588803b158015610aed57600080fd5b505af1158015610b01573d6000803e3d6000fd5b50505050506040513d6000823e3d601f19601f820116820180604052506020811015610b2c57600080fd5b8101908080516040519392919084640100000000821115610b4c57600080fd5b83820191506020820185811115610b6257600080fd5b8251866020820283011164010000000082111715610b7f57600080fd5b8083526020830192505050908051906020019060200280838360005b83811015610bb6578082015181840152602081019050610b9b565b50505050905001604052505050505b600089600260038110610bd457fe5b60200201511115610fa157731f9840a85d5af5bf1d1762f925bdaddc4201f98481600181518110610c0157fe5b602002602001019073ffffffffffffffffffffffffffffffffffffffff16908173ffffffffffffffffffffffffffffffffffffffff1681525050603460009054906101000a900473ffffffffffffffffffffffffffffffffffffffff1673ffffffffffffffffffffffffffffffffffffffff1663d06ca61f84836040518363ffffffff1660e01b81526004018083815260200180602001828103825283818151815260200191508051906020019060200280838360005b83811015610cd3578082015181840152602081019050610cb8565b50505050905001935050505060006040518083038186803b158015610cf757600080fd5b505afa158015610d0b573d6000803e3d6000fd5b505050506040513d6000823e3d601f19601f820116820180604052506020811015610d3557600080fd5b8101908080516040519392919084640100000000821115610d5557600080fd5b83820191506020820185811115610d6b57600080fd5b8251866020820283011164010000000082111715610d8857600080fd5b8083526020830192505050908051906020019060200280838360005b83811015610dbf578082015181840152602081019050610da4565b505050509050016040525050509150603460009054906101000a900473ffffffffffffffffffffffffffffffffffffffff1673ffffffffffffffffffffffffffffffffffffffff16637ff36ab58484600181518110610e1a57fe5b60200260200101518433603c42016040518663ffffffff1660e01b815260040180858152602001806020018473ffffffffffffffffffffffffffffffffffffffff168152602001838152602001828103825285818151815260200191508051906020019060200280838360005b83811015610ea2578082015181840152602081019050610e87565b50505050905001955050505050506000604051808303818588803b158015610ec957600080fd5b505af1158015610edd573d6000803e3d6000fd5b50505050506040513d6000823e3d601f19601f820116820180604052506020811015610f0857600080fd5b8101908080516040519392919084640100000000821115610f2857600080fd5b83820191506020820185811115610f3e57600080fd5b8251866020820283011164010000000082111715610f5b57600080fd5b8083526020830192505050908051906020019060200280838360005b83811015610f92578082015181840152602081019050610f77565b50505050905001604052505050505b6001975050505050505050919050565b603360009054906101000a900473ffffffffffffffffffffffffffffffffffffffff168156fe4572726f7220696e20706f7263656e7461676573206f6620726571756972656420746f6b656e73a26469706673582212209ad4c8838b410f96d6ad7c4d8c3870cec4d09dc020d59cd10681fb5416d1ceb464736f6c63430007030033",
  "linkReferences": {},
  "deployedLinkReferences": {}
}