{
  "_format": "hh-sol-artifact-1",
  "contractName": "SwapV1",
  "sourceName": "contracts/SwapV1.sol",
  "abi": [
    {
      "inputs": [
        {
          "internalType": "address",
          "name": "_owner",
          "type": "address"
        }
      ],
      "stateMutability": "nonpayable",
      "type": "constructor"
    },
    {
      "inputs": [],
      "name": "owner",
      "outputs": [
        {
          "internalType": "address",
          "name": "",
          "type": "address"
        }
      ],
      "stateMutability": "view",
      "type": "function"
    },
    {
      "inputs": [
        {
          "internalType": "uint256[3]",
          "name": "_amountOfTokens",
          "type": "uint256[3]"
        }
      ],
      "name": "swapTokens",
      "outputs": [
        {
          "internalType": "bool",
          "name": "",
          "type": "bool"
        }
      ],
      "stateMutability": "payable",
      "type": "function"
    }
  ],
  "bytecode": "0x608060405234801561001057600080fd5b50604051610b98380380610b9883398101604081905261002f91610071565b603380546001600160a01b039092166001600160a01b031992831617905560348054909116737a250d5630b4cf539739df2c5dacb4c659f2488d17905561009f565b600060208284031215610082578081fd5b81516001600160a01b0381168114610098578182fd5b9392505050565b610aea806100ae6000396000f3fe6080604052600436106100295760003560e01c806369fde4df1461002e5780638da5cb5b14610057575b600080fd5b61004161003c3660046107c5565b610079565b60405161004e9190610948565b60405180910390f35b34801561006357600080fd5b5061006c610788565b60405161004e9190610934565b604081015160208201518251600092839290916100969190610a1a565b6100a09190610a1a565b9050806064146100cb5760405162461bcd60e51b81526004016100c290610953565b60405180910390fd5b60006100d96103e834610a32565b6100e39034610a71565b84519091506000906064906100f89084610a52565b6101029190610a32565b905060006064866001602002015161011a9085610a52565b6101249190610a32565b905060006064876002602002015161013c9086610a52565b6101469190610a32565b60408051600280825260608201835292935060009290916020830190803683375050604080516002808252606082018352939450600093909250906020830190803683375050603454604080516315ab88c960e31b815290519394506001600160a01b039091169263ad5c464892506004808301926020929190829003018186803b1580156101d457600080fd5b505afa1580156101e8573d6000803e3d6000fd5b505050506040513d601f19601f8201168201806040525081019061020c9190610797565b8160008151811061022d57634e487b7160e01b600052603260045260246000fd5b6001600160a01b039283166020918202929092010152603354166102536103e834610a32565b60405161025f90610931565b60006040518083038185875af1925050503d806000811461029c576040519150601f19603f3d011682016040523d82523d6000602084013e6102a1565b606091505b5050895115905061043f57736b175474e89094c44da98b954eedeac495271d0f816001815181106102e257634e487b7160e01b600052603260045260246000fd5b6001600160a01b03928316602091820292909201015260345460405163d06ca61f60e01b815291169063d06ca61f90610321908890859060040161099a565b60006040518083038186803b15801561033957600080fd5b505afa15801561034d573d6000803e3d6000fd5b505050506040513d6000823e601f3d908101601f191682016040526103759190810190610847565b60345481519193506001600160a01b031690637ff36ab5908790859060019081106103b057634e487b7160e01b600052603260045260246000fd5b6020026020010151843342610e106103c89190610a1a565b6040518663ffffffff1660e01b81526004016103e794939291906109bb565b6000604051808303818588803b15801561040057600080fd5b505af1158015610414573d6000803e3d6000fd5b50505050506040513d6000823e601f3d908101601f1916820160405261043d9190810190610847565b505b6020890151156105dc5773514910771af9ca656af840dff83e8264ecf986ca8160018151811061047f57634e487b7160e01b600052603260045260246000fd5b6001600160a01b03928316602091820292909201015260345460405163d06ca61f60e01b815291169063d06ca61f906104be908790859060040161099a565b60006040518083038186803b1580156104d657600080fd5b505afa1580156104ea573d6000803e3d6000fd5b505050506040513d6000823e601f3d908101601f191682016040526105129190810190610847565b60345481519193506001600160a01b031690637ff36ab59086908590600190811061054d57634e487b7160e01b600052603260045260246000fd5b6020026020010151843342610e106105659190610a1a565b6040518663ffffffff1660e01b815260040161058494939291906109bb565b6000604051808303818588803b15801561059d57600080fd5b505af11580156105b1573d6000803e3d6000fd5b50505050506040513d6000823e601f3d908101601f191682016040526105da9190810190610847565b505b60408901511561077957731f9840a85d5af5bf1d1762f925bdaddc4201f9848160018151811061061c57634e487b7160e01b600052603260045260246000fd5b6001600160a01b03928316602091820292909201015260345460405163d06ca61f60e01b815291169063d06ca61f9061065b908690859060040161099a565b60006040518083038186803b15801561067357600080fd5b505afa158015610687573d6000803e3d6000fd5b505050506040513d6000823e601f3d908101601f191682016040526106af9190810190610847565b60345481519193506001600160a01b031690637ff36ab5908590859060019081106106ea57634e487b7160e01b600052603260045260246000fd5b6020026020010151843342610e106107029190610a1a565b6040518663ffffffff1660e01b815260040161072194939291906109bb565b6000604051808303818588803b15801561073a57600080fd5b505af115801561074e573d6000803e3d6000fd5b50505050506040513d6000823e601f3d908101601f191682016040526107779190810190610847565b505b50600198975050505050505050565b6033546001600160a01b031681565b6000602082840312156107a8578081fd5b81516001600160a01b03811681146107be578182fd5b9392505050565b6000606082840312156107d6578081fd5b82601f8301126107e4578081fd5b6040516060810181811067ffffffffffffffff8211171561080757610807610a9e565b60405280836060810186101561081b578384fd5b835b600381101561083c57813583526020928301929091019060010161081d565b509195945050505050565b60006020808385031215610859578182fd5b825167ffffffffffffffff80821115610870578384fd5b818501915085601f830112610883578384fd5b81518181111561089557610895610a9e565b83810291506108a58483016109f0565b8181528481019084860184860187018a10156108bf578788fd5b8795505b838610156108e15780518352600195909501949186019186016108c3565b5098975050505050505050565b6000815180845260208085019450808401835b838110156109265781516001600160a01b031687529582019590820190600101610901565b509495945050505050565b90565b6001600160a01b0391909116815260200190565b901515815260200190565b60208082526027908201527f4572726f7220696e20706f7263656e7461676573206f6620726571756972656460408201526620746f6b656e7360c81b606082015260800190565b6000838252604060208301526109b360408301846108ee565b949350505050565b6000858252608060208301526109d460808301866108ee565b6001600160a01b03949094166040830152506060015292915050565b60405181810167ffffffffffffffff81118282101715610a1257610a12610a9e565b604052919050565b60008219821115610a2d57610a2d610a88565b500190565b600082610a4d57634e487b7160e01b81526012600452602481fd5b500490565b6000816000190483118215151615610a6c57610a6c610a88565b500290565b600082821015610a8357610a83610a88565b500390565b634e487b7160e01b600052601160045260246000fd5b634e487b7160e01b600052604160045260246000fdfea26469706673582212201078bbf4c8c85da83fde3da4863db9cdbe38896003d118d8fa4a8db3acf61f7a64736f6c63430008000033",
  "linkReferences": {},
  "deployedLinkReferences": {}
}